{
  "address": "0xf1Cf036F937117499C3df9D54b0FCE186d820250",
  "abi": [
    {
      "inputs": [],
      "stateMutability": "nonpayable",
      "type": "constructor"
    },
    {
      "inputs": [],
      "name": "AccessControlBadConfirmation",
      "type": "error"
    },
    {
      "inputs": [
        {
          "internalType": "address",
          "name": "account",
          "type": "address"
        },
        {
          "internalType": "bytes32",
          "name": "neededRole",
          "type": "bytes32"
        }
      ],
      "name": "AccessControlUnauthorizedAccount",
      "type": "error"
    },
    {
      "inputs": [
        {
          "internalType": "address",
          "name": "owner",
          "type": "address"
        }
      ],
      "name": "OwnableInvalidOwner",
      "type": "error"
    },
    {
      "inputs": [
        {
          "internalType": "address",
          "name": "account",
          "type": "address"
        }
      ],
      "name": "OwnableUnauthorizedAccount",
      "type": "error"
    },
    {
      "anonymous": false,
      "inputs": [
        {
          "indexed": false,
          "internalType": "string",
          "name": "userNameEncrypted",
          "type": "string"
        },
        {
          "indexed": false,
          "internalType": "string",
          "name": "documentHash",
          "type": "string"
        },
        {
          "indexed": false,
          "internalType": "string",
          "name": "customerName",
          "type": "string"
        },
        {
          "indexed": false,
          "internalType": "uint32",
          "name": "timeStamp",
          "type": "uint32"
        },
        {
          "indexed": false,
          "internalType": "enum AuditTrail.SignatureType",
          "name": "sigType",
          "type": "uint8"
        }
      ],
      "name": "AuditLogCreated",
      "type": "event"
    },
    {
      "anonymous": false,
      "inputs": [
        {
          "indexed": true,
          "internalType": "address",
          "name": "previousOwner",
          "type": "address"
        },
        {
          "indexed": true,
          "internalType": "address",
          "name": "newOwner",
          "type": "address"
        }
      ],
      "name": "OwnershipTransferred",
      "type": "event"
    },
    {
      "anonymous": false,
      "inputs": [
        {
          "indexed": true,
          "internalType": "bytes32",
          "name": "role",
          "type": "bytes32"
        },
        {
          "indexed": true,
          "internalType": "bytes32",
          "name": "previousAdminRole",
          "type": "bytes32"
        },
        {
          "indexed": true,
          "internalType": "bytes32",
          "name": "newAdminRole",
          "type": "bytes32"
        }
      ],
      "name": "RoleAdminChanged",
      "type": "event"
    },
    {
      "anonymous": false,
      "inputs": [
        {
          "indexed": true,
          "internalType": "bytes32",
          "name": "role",
          "type": "bytes32"
        },
        {
          "indexed": true,
          "internalType": "address",
          "name": "account",
          "type": "address"
        },
        {
          "indexed": true,
          "internalType": "address",
          "name": "sender",
          "type": "address"
        }
      ],
      "name": "RoleGranted",
      "type": "event"
    },
    {
      "anonymous": false,
      "inputs": [
        {
          "indexed": true,
          "internalType": "bytes32",
          "name": "role",
          "type": "bytes32"
        },
        {
          "indexed": true,
          "internalType": "address",
          "name": "account",
          "type": "address"
        },
        {
          "indexed": true,
          "internalType": "address",
          "name": "sender",
          "type": "address"
        }
      ],
      "name": "RoleRevoked",
      "type": "event"
    },
    {
      "inputs": [],
      "name": "DEFAULT_ADMIN_ROLE",
      "outputs": [
        {
          "internalType": "bytes32",
          "name": "",
          "type": "bytes32"
        }
      ],
      "stateMutability": "view",
      "type": "function"
    },
    {
      "inputs": [
        {
          "internalType": "string[]",
          "name": "_userNamesEncrypted",
          "type": "string[]"
        },
        {
          "internalType": "string[]",
          "name": "_documentHashes",
          "type": "string[]"
        },
        {
          "internalType": "string[]",
          "name": "_customerNames",
          "type": "string[]"
        },
        {
          "internalType": "uint32[]",
          "name": "_timeStamps",
          "type": "uint32[]"
        },
        {
          "internalType": "enum AuditTrail.SignatureType[]",
          "name": "_sigTypes",
          "type": "uint8[]"
        }
      ],
      "name": "batchCreateAuditLogs",
      "outputs": [],
      "stateMutability": "nonpayable",
      "type": "function"
    },
    {
      "inputs": [
        {
          "internalType": "string",
          "name": "_userNameEncrypted",
          "type": "string"
        },
        {
          "internalType": "string",
          "name": "_documentHash",
          "type": "string"
        },
        {
          "internalType": "string",
          "name": "_customerName",
          "type": "string"
        },
        {
          "internalType": "uint32",
          "name": "_timeStamp",
          "type": "uint32"
        },
        {
          "internalType": "enum AuditTrail.SignatureType",
          "name": "_sigType",
          "type": "uint8"
        }
      ],
      "name": "createAuditLog",
      "outputs": [],
      "stateMutability": "nonpayable",
      "type": "function"
    },
    {
      "inputs": [
        {
          "internalType": "uint256",
          "name": "_id",
          "type": "uint256"
        }
      ],
      "name": "getAuditLogById",
      "outputs": [
        {
          "components": [
            {
              "internalType": "string",
              "name": "userNameEncrypted",
              "type": "string"
            },
            {
              "internalType": "string",
              "name": "documentHash",
              "type": "string"
            },
            {
              "internalType": "string",
              "name": "customerName",
              "type": "string"
            },
            {
              "internalType": "uint32",
              "name": "timeStamp",
              "type": "uint32"
            },
            {
              "internalType": "enum AuditTrail.SignatureType",
              "name": "sigType",
              "type": "uint8"
            }
          ],
          "internalType": "struct AuditTrail.AuditLog",
          "name": "",
          "type": "tuple"
        }
      ],
      "stateMutability": "view",
      "type": "function"
    },
    {
      "inputs": [],
      "name": "getAuditLogs",
      "outputs": [
        {
          "components": [
            {
              "internalType": "string",
              "name": "userNameEncrypted",
              "type": "string"
            },
            {
              "internalType": "string",
              "name": "documentHash",
              "type": "string"
            },
            {
              "internalType": "string",
              "name": "customerName",
              "type": "string"
            },
            {
              "internalType": "uint32",
              "name": "timeStamp",
              "type": "uint32"
            },
            {
              "internalType": "enum AuditTrail.SignatureType",
              "name": "sigType",
              "type": "uint8"
            }
          ],
          "internalType": "struct AuditTrail.AuditLog[]",
          "name": "",
          "type": "tuple[]"
        }
      ],
      "stateMutability": "view",
      "type": "function"
    },
    {
      "inputs": [
        {
          "internalType": "bytes32",
          "name": "role",
          "type": "bytes32"
        }
      ],
      "name": "getRoleAdmin",
      "outputs": [
        {
          "internalType": "bytes32",
          "name": "",
          "type": "bytes32"
        }
      ],
      "stateMutability": "view",
      "type": "function"
    },
    {
      "inputs": [
        {
          "internalType": "bytes32",
          "name": "role",
          "type": "bytes32"
        },
        {
          "internalType": "address",
          "name": "account",
          "type": "address"
        }
      ],
      "name": "grantRole",
      "outputs": [],
      "stateMutability": "nonpayable",
      "type": "function"
    },
    {
      "inputs": [
        {
          "internalType": "bytes32",
          "name": "role",
          "type": "bytes32"
        },
        {
          "internalType": "address",
          "name": "account",
          "type": "address"
        }
      ],
      "name": "hasRole",
      "outputs": [
        {
          "internalType": "bool",
          "name": "",
          "type": "bool"
        }
      ],
      "stateMutability": "view",
      "type": "function"
    },
    {
      "inputs": [],
      "name": "logCount",
      "outputs": [
        {
          "internalType": "uint256",
          "name": "",
          "type": "uint256"
        }
      ],
      "stateMutability": "view",
      "type": "function"
    },
    {
      "inputs": [],
      "name": "owner",
      "outputs": [
        {
          "internalType": "address",
          "name": "",
          "type": "address"
        }
      ],
      "stateMutability": "view",
      "type": "function"
    },
    {
      "inputs": [],
      "name": "renounceOwnership",
      "outputs": [],
      "stateMutability": "nonpayable",
      "type": "function"
    },
    {
      "inputs": [
        {
          "internalType": "bytes32",
          "name": "role",
          "type": "bytes32"
        },
        {
          "internalType": "address",
          "name": "callerConfirmation",
          "type": "address"
        }
      ],
      "name": "renounceRole",
      "outputs": [],
      "stateMutability": "nonpayable",
      "type": "function"
    },
    {
      "inputs": [
        {
          "internalType": "bytes32",
          "name": "role",
          "type": "bytes32"
        },
        {
          "internalType": "address",
          "name": "account",
          "type": "address"
        }
      ],
      "name": "revokeRole",
      "outputs": [],
      "stateMutability": "nonpayable",
      "type": "function"
    },
    {
      "inputs": [
        {
          "internalType": "bytes4",
          "name": "interfaceId",
          "type": "bytes4"
        }
      ],
      "name": "supportsInterface",
      "outputs": [
        {
          "internalType": "bool",
          "name": "",
          "type": "bool"
        }
      ],
      "stateMutability": "view",
      "type": "function"
    },
    {
      "inputs": [
        {
          "internalType": "address",
          "name": "newOwner",
          "type": "address"
        }
      ],
      "name": "transferOwnership",
      "outputs": [],
      "stateMutability": "nonpayable",
      "type": "function"
    }
  ],
  "transactionHash": "0x2ee350987c9f3b417fc57adda5bc637985ba542442cc67d2ebd8608aa117d44c",
  "args": [],
  "numDeployments": 1,
  "solcInputHash": "37e1a2cde5d024facfeffe7e42b3ea60",
  "bytecode": "0x608060405234801561001057600080fd5b50338061003757604051631e4fbdf760e01b81526000600482015260240160405180910390fd5b61004081610052565b5061004c6000336100a4565b50610150565b600180546001600160a01b038381166001600160a01b0319831681179093556040519116919082907f8be0079c531659141344cd1fd0a4f28419497f9722a3daafe3b4186f6b6457e090600090a35050565b6000828152602081815260408083206001600160a01b038516845290915281205460ff16610146576000838152602081815260408083206001600160a01b03861684529091529020805460ff191660011790556100fe3390565b6001600160a01b0316826001600160a01b0316847f2f8788117e7eff1d82e926ec794901d17c78024a50270940304540a733656f0d60405160405180910390a450600161014a565b5060005b92915050565b6116a880620001606000396000f3fe608060405234801561001057600080fd5b50600436106100f55760003560e01c80638da5cb5b11610097578063c465f2f011610066578063c465f2f0146101f5578063c62fb41e1461020a578063d547741f1461021d578063f2fde38b1461023057600080fd5b80638da5cb5b146101b657806391d14854146101d1578063a217fddf146101e4578063a503898f146101ec57600080fd5b806336568abe116100d357806336568abe1461016857806367ccaa551461017b578063715018a61461019b5780637445ac67146101a357600080fd5b806301ffc9a7146100fa578063248a9ca3146101225780632f2ff15d14610153575b600080fd5b61010d610108366004610f4b565b610243565b60405190151581526020015b60405180910390f35b610145610130366004610f7c565b60009081526020819052604090206001015490565b604051908152602001610119565b610166610161366004610fb1565b61027a565b005b610166610176366004610fb1565b6102a5565b61018e610189366004610f7c565b6102dd565b60405161011991906110d0565b6101666105c3565b6101666101b136600461114f565b6105d7565b6001546040516001600160a01b039091168152602001610119565b61010d6101df366004610fb1565b6107d2565b610145600081565b61014560075481565b6101fd6107fb565b604051610119919061120a565b6101666102183660046112b3565b610897565b61016661022b366004610fb1565b610c2f565b61016661023e3660046113a4565b610c54565b60006001600160e01b03198216637965db0b60e01b148061027457506301ffc9a760e01b6001600160e01b03198316145b92915050565b60008281526020819052604090206001015461029581610c92565b61029f8383610c9c565b50505050565b6001600160a01b03811633146102ce5760405163334bd91960e11b815260040160405180910390fd5b6102d88282610d2e565b505050565b6102e5610f06565b6040518060a0016040528060026000018481548110610306576103066113bf565b90600052602060002001805461031b906113d5565b80601f0160208091040260200160405190810160405280929190818152602001828054610347906113d5565b80156103945780601f1061036957610100808354040283529160200191610394565b820191906000526020600020905b81548152906001019060200180831161037757829003601f168201915b50505050508152602001600260010184815481106103b4576103b46113bf565b9060005260206000200180546103c9906113d5565b80601f01602080910402602001604051908101604052809291908181526020018280546103f5906113d5565b80156104425780601f1061041757610100808354040283529160200191610442565b820191906000526020600020905b81548152906001019060200180831161042557829003601f168201915b5050505050815260200160096000600280018681548110610465576104656113bf565b90600052602060002090601091828204019190066002029054906101000a900461ffff1661ffff1661ffff16815260200190815260200160002080546104aa906113d5565b80601f01602080910402602001604051908101604052809291908181526020018280546104d6906113d5565b80156105235780601f106104f857610100808354040283529160200191610523565b820191906000526020600020905b81548152906001019060200180831161050657829003601f168201915b5050505050815260200160026003018481548110610543576105436113bf565b90600052602060002090600891828204019190066004029054906101000a900463ffffffff1663ffffffff1681526020016002600401848154811061058a5761058a6113bf565b90600052602060002090602091828204019190069054906101000a900460ff1660048111156105bb576105bb611023565b905292915050565b6105cb610d99565b6105d56000610dc6565b565b6105df610d99565b60006105eb8585610e18565b600280546001810182556000919091529091507f405787fa12a823e0f2b7631cc41b3ba8828b3321ca811111fa75cd3aa3bb5ace0161062b898b8361146f565b50600380546001810182556000919091527fc2575a0e9e593c00f959f8c92f12db2869c3395a3b0502d05e2516446f71f85b0161066987898361146f565b506004805460018181018355601082047f8a35acfbc15ff81a39ae7d344fd709f28e8600b4aa8c65c6b64bfe7fe36bd19b01805461ffff808716600f90951660020261010090810a958602919095021990911617905560058054808301909155600881047f036b6384b5eca791c62761152d0c79bb0604c104a5fb6f4eb0703f3154bb3db001805463ffffffff808a1660079094168702860a93840293021916919091179055600680549182018155600052602081047ff652222313e28459528d920b65115c16c04f3efc82aaedc97be59f3f377c0d3f0180548694919360ff601f909416900a92830219169190849081111561076857610768611023565b02179055506007805490600061077d83611530565b91905055507fc897d00217f4a38dca2fc419b0ab1f768cfb99c4fa2cc71493b8adcc32bd9d6b89898989898989896040516107bf989796959493929190611580565b60405180910390a1505050505050505050565b6000918252602082815260408084206001600160a01b0393909316845291905290205460ff1690565b6060600060075467ffffffffffffffff81111561081a5761081a611409565b60405190808252806020026020018201604052801561085357816020015b610840610f06565b8152602001906001900390816108385790505b50905060005b6007548110156108915761086c816102dd565b82828151811061087e5761087e6113bf565b6020908102919091010152600101610859565b50919050565b61089f610d99565b8887811415806108af5750808614155b806108ba5750808414155b806108c55750808214155b156109175760405162461bcd60e51b815260206004820152601a60248201527f4172726179206c656e6774687320646f206e6f74206d6174636800000000000060448201526064015b60405180910390fd5b60005b81811015610c21576000610950898984818110610939576109396113bf565b905060200281019061094b91906115e5565b610e18565b905060028d8d84818110610966576109666113bf565b905060200281019061097891906115e5565b82546001810184556000938452602090932090920191610998918361146f565b5060038b8b848181106109ad576109ad6113bf565b90506020028101906109bf91906115e5565b825460018101845560009384526020909320909201916109df918361146f565b5060048054600181018255600091909152601081047f8a35acfbc15ff81a39ae7d344fd709f28e8600b4aa8c65c6b64bfe7fe36bd19b01805461ffff808516600f9094166002026101000a938402930219169190911790556005878784818110610a4b57610a4b6113bf565b9050602002016020810190610a60919061162c565b8154600181018355600092835260209092206008830401805460079093166004026101000a63ffffffff8181021990941692909316929092021790556006858584818110610ab057610ab06113bf565b9050602002016020810190610ac59190611647565b8154600181018355600092835260209283902092810490920180549192909160ff601f9092166101000a918202191690836004811115610b0757610b07611023565b021790555060078054906000610b1c83611530565b91905055507fc897d00217f4a38dca2fc419b0ab1f768cfb99c4fa2cc71493b8adcc32bd9d6b8d8d84818110610b5457610b546113bf565b9050602002810190610b6691906115e5565b8d8d86818110610b7857610b786113bf565b9050602002810190610b8a91906115e5565b8d8d88818110610b9c57610b9c6113bf565b9050602002810190610bae91906115e5565b8d8d8a818110610bc057610bc06113bf565b9050602002016020810190610bd5919061162c565b8c8c8b818110610be757610be76113bf565b9050602002016020810190610bfc9190611647565b604051610c10989796959493929190611580565b60405180910390a15060010161091a565b505050505050505050505050565b600082815260208190526040902060010154610c4a81610c92565b61029f8383610d2e565b610c5c610d99565b6001600160a01b038116610c8657604051631e4fbdf760e01b81526000600482015260240161090e565b610c8f81610dc6565b50565b610c8f8133610ec9565b6000610ca883836107d2565b610d26576000838152602081815260408083206001600160a01b03861684529091529020805460ff19166001179055610cde3390565b6001600160a01b0316826001600160a01b0316847f2f8788117e7eff1d82e926ec794901d17c78024a50270940304540a733656f0d60405160405180910390a4506001610274565b506000610274565b6000610d3a83836107d2565b15610d26576000838152602081815260408083206001600160a01b0386168085529252808320805460ff1916905551339286917ff6391f5c32d9c69d2a47ea670b442974b53935d1edc7fd64eb21e047a839171b9190a4506001610274565b6001546001600160a01b031633146105d55760405163118cdaa760e01b815233600482015260240161090e565b600180546001600160a01b038381166001600160a01b0319831681179093556040519116919082907f8be0079c531659141344cd1fd0a4f28419497f9722a3daafe3b4186f6b6457e090600090a35050565b600060088383604051610e2c929190611662565b9081526040519081900360200190205461ffff16600003610e9b5760075460088484604051610e5c929190611662565b9081526040805160209281900383019020805461ffff191661ffff9485161790556007549092166000908152600990915220610e9983858361146f565b505b60088383604051610ead929190611662565b9081526040519081900360200190205461ffff16905092915050565b610ed382826107d2565b610f025760405163e2517d3f60e01b81526001600160a01b03821660048201526024810183905260440161090e565b5050565b6040518060a00160405280606081526020016060815260200160608152602001600063ffffffff16815260200160006004811115610f4657610f46611023565b905290565b600060208284031215610f5d57600080fd5b81356001600160e01b031981168114610f7557600080fd5b9392505050565b600060208284031215610f8e57600080fd5b5035919050565b80356001600160a01b0381168114610fac57600080fd5b919050565b60008060408385031215610fc457600080fd5b82359150610fd460208401610f95565b90509250929050565b6000815180845260005b8181101561100357602081850181015186830182015201610fe7565b506000602082860101526020601f19601f83011685010191505092915050565b634e487b7160e01b600052602160045260246000fd5b6005811061105757634e487b7160e01b600052602160045260246000fd5b9052565b6000815160a0845261107060a0850182610fdd565b9050602083015184820360208601526110898282610fdd565b915050604083015184820360408601526110a38282610fdd565b91505063ffffffff606084015116606085015260808301516110c86080860182611039565b509392505050565b602081526000610f75602083018461105b565b60008083601f8401126110f557600080fd5b50813567ffffffffffffffff81111561110d57600080fd5b60208301915083602082850101111561112557600080fd5b9250929050565b803563ffffffff81168114610fac57600080fd5b803560058110610fac57600080fd5b60008060008060008060008060a0898b03121561116b57600080fd5b883567ffffffffffffffff8082111561118357600080fd5b61118f8c838d016110e3565b909a50985060208b01359150808211156111a857600080fd5b6111b48c838d016110e3565b909850965060408b01359150808211156111cd57600080fd5b506111da8b828c016110e3565b90955093506111ed905060608a0161112c565b91506111fb60808a01611140565b90509295985092959890939650565b600060208083016020845280855180835260408601915060408160051b87010192506020870160005b8281101561126157603f1988860301845261124f85835161105b565b94509285019290850190600101611233565b5092979650505050505050565b60008083601f84011261128057600080fd5b50813567ffffffffffffffff81111561129857600080fd5b6020830191508360208260051b850101111561112557600080fd5b60008060008060008060008060008060a08b8d0312156112d257600080fd5b8a3567ffffffffffffffff808211156112ea57600080fd5b6112f68e838f0161126e565b909c509a5060208d013591508082111561130f57600080fd5b61131b8e838f0161126e565b909a50985060408d013591508082111561133457600080fd5b6113408e838f0161126e565b909850965060608d013591508082111561135957600080fd5b6113658e838f0161126e565b909650945060808d013591508082111561137e57600080fd5b5061138b8d828e0161126e565b915080935050809150509295989b9194979a5092959850565b6000602082840312156113b657600080fd5b610f7582610f95565b634e487b7160e01b600052603260045260246000fd5b600181811c908216806113e957607f821691505b60208210810361089157634e487b7160e01b600052602260045260246000fd5b634e487b7160e01b600052604160045260246000fd5b601f8211156102d8576000816000526020600020601f850160051c810160208610156114485750805b601f850160051c820191505b8181101561146757828155600101611454565b505050505050565b67ffffffffffffffff83111561148757611487611409565b61149b8361149583546113d5565b8361141f565b6000601f8411600181146114cf57600085156114b75750838201355b600019600387901b1c1916600186901b178355611529565b600083815260209020601f19861690835b8281101561150057868501358255602094850194600190920191016114e0565b508682101561151d5760001960f88860031b161c19848701351681555b505060018560011b0183555b5050505050565b60006001820161155057634e487b7160e01b600052601160045260246000fd5b5060010190565b81835281816020850137506000828201602090810191909152601f909101601f19169091010190565b60a08152600061159460a083018a8c611557565b82810360208401526115a781898b611557565b905082810360408401526115bc818789611557565b91505063ffffffff841660608301526115d86080830184611039565b9998505050505050505050565b6000808335601e198436030181126115fc57600080fd5b83018035915067ffffffffffffffff82111561161757600080fd5b60200191503681900382131561112557600080fd5b60006020828403121561163e57600080fd5b610f758261112c565b60006020828403121561165957600080fd5b610f7582611140565b818382376000910190815291905056fea26469706673582212203bae5e61376adeaa42415d777cd1fdbee9cedd8e2be3d086bdfc3b3a892a0bba64736f6c63430008160033",
  "devdoc": {
    "errors": {
      "AccessControlBadConfirmation()": [
        {
          "details": "The caller of a function is not the expected one. NOTE: Don't confuse with {AccessControlUnauthorizedAccount}."
        }
      ],
      "AccessControlUnauthorizedAccount(address,bytes32)": [
        {
          "details": "The `account` is missing a role."
        }
      ],
      "OwnableInvalidOwner(address)": [
        {
          "details": "The owner is not a valid owner account. (eg. `address(0)`)"
        }
      ],
      "OwnableUnauthorizedAccount(address)": [
        {
          "details": "The caller account is not authorized to perform an operation."
        }
      ]
    },
    "events": {
      "RoleAdminChanged(bytes32,bytes32,bytes32)": {
        "details": "Emitted when `newAdminRole` is set as ``role``'s admin role, replacing `previousAdminRole` `DEFAULT_ADMIN_ROLE` is the starting admin for all roles, despite {RoleAdminChanged} not being emitted signaling this."
      },
      "RoleGranted(bytes32,address,address)": {
        "details": "Emitted when `account` is granted `role`. `sender` is the account that originated the contract call, an admin role bearer except when using {AccessControl-_setupRole}."
      },
      "RoleRevoked(bytes32,address,address)": {
        "details": "Emitted when `account` is revoked `role`. `sender` is the account that originated the contract call:   - if using `revokeRole`, it is the admin role bearer   - if using `renounceRole`, it is the role bearer (i.e. `account`)"
      }
    },
    "kind": "dev",
    "methods": {
      "getRoleAdmin(bytes32)": {
        "details": "Returns the admin role that controls `role`. See {grantRole} and {revokeRole}. To change a role's admin, use {_setRoleAdmin}."
      },
      "grantRole(bytes32,address)": {
        "details": "Grants `role` to `account`. If `account` had not been already granted `role`, emits a {RoleGranted} event. Requirements: - the caller must have ``role``'s admin role. May emit a {RoleGranted} event."
      },
      "hasRole(bytes32,address)": {
        "details": "Returns `true` if `account` has been granted `role`."
      },
      "owner()": {
        "details": "Returns the address of the current owner."
      },
      "renounceOwnership()": {
        "details": "Leaves the contract without owner. It will not be possible to call `onlyOwner` functions. Can only be called by the current owner. NOTE: Renouncing ownership will leave the contract without an owner, thereby disabling any functionality that is only available to the owner."
      },
      "renounceRole(bytes32,address)": {
        "details": "Revokes `role` from the calling account. Roles are often managed via {grantRole} and {revokeRole}: this function's purpose is to provide a mechanism for accounts to lose their privileges if they are compromised (such as when a trusted device is misplaced). If the calling account had been revoked `role`, emits a {RoleRevoked} event. Requirements: - the caller must be `callerConfirmation`. May emit a {RoleRevoked} event."
      },
      "revokeRole(bytes32,address)": {
        "details": "Revokes `role` from `account`. If `account` had been granted `role`, emits a {RoleRevoked} event. Requirements: - the caller must have ``role``'s admin role. May emit a {RoleRevoked} event."
      },
      "supportsInterface(bytes4)": {
        "details": "See {IERC165-supportsInterface}."
      },
      "transferOwnership(address)": {
        "details": "Transfers ownership of the contract to a new account (`newOwner`). Can only be called by the current owner."
      }
    },
    "version": 1
  },
  "userdoc": {
    "kind": "user",
    "methods": {},
    "version": 1
  },
  "storageLayout": {
    "storage": [
      {
        "astId": 26,
        "contract": "contracts/AuditTrail.sol:AuditTrail",
        "label": "_roles",
        "offset": 0,
        "slot": "0",
        "type": "t_mapping(t_bytes32,t_struct(RoleData)21_storage)"
      },
      {
        "astId": 387,
        "contract": "contracts/AuditTrail.sol:AuditTrail",
        "label": "_owner",
        "offset": 0,
        "slot": "1",
        "type": "t_address"
      },
      {
        "astId": 651,
        "contract": "contracts/AuditTrail.sol:AuditTrail",
        "label": "auditLogs",
        "offset": 0,
        "slot": "2",
        "type": "t_struct(AuditLogs)648_storage"
      },
      {
        "astId": 653,
        "contract": "contracts/AuditTrail.sol:AuditTrail",
        "label": "logCount",
        "offset": 0,
        "slot": "7",
        "type": "t_uint256"
      },
      {
        "astId": 657,
        "contract": "contracts/AuditTrail.sol:AuditTrail",
        "label": "customerNameToId",
        "offset": 0,
        "slot": "8",
        "type": "t_mapping(t_string_memory_ptr,t_uint16)"
      },
      {
        "astId": 661,
        "contract": "contracts/AuditTrail.sol:AuditTrail",
        "label": "customerIdToName",
        "offset": 0,
        "slot": "9",
        "type": "t_mapping(t_uint16,t_string_storage)"
      }
    ],
    "types": {
      "t_address": {
        "encoding": "inplace",
        "label": "address",
        "numberOfBytes": "20"
      },
      "t_array(t_enum(SignatureType)619)dyn_storage": {
        "base": "t_enum(SignatureType)619",
        "encoding": "dynamic_array",
        "label": "enum AuditTrail.SignatureType[]",
        "numberOfBytes": "32"
      },
      "t_array(t_string_storage)dyn_storage": {
        "base": "t_string_storage",
        "encoding": "dynamic_array",
        "label": "string[]",
        "numberOfBytes": "32"
      },
      "t_array(t_uint16)dyn_storage": {
        "base": "t_uint16",
        "encoding": "dynamic_array",
        "label": "uint16[]",
        "numberOfBytes": "32"
      },
      "t_array(t_uint32)dyn_storage": {
        "base": "t_uint32",
        "encoding": "dynamic_array",
        "label": "uint32[]",
        "numberOfBytes": "32"
      },
      "t_bool": {
        "encoding": "inplace",
        "label": "bool",
        "numberOfBytes": "1"
      },
      "t_bytes32": {
        "encoding": "inplace",
        "label": "bytes32",
        "numberOfBytes": "32"
      },
      "t_enum(SignatureType)619": {
        "encoding": "inplace",
        "label": "enum AuditTrail.SignatureType",
        "numberOfBytes": "1"
      },
      "t_mapping(t_address,t_bool)": {
        "encoding": "mapping",
        "key": "t_address",
        "label": "mapping(address => bool)",
        "numberOfBytes": "32",
        "value": "t_bool"
      },
      "t_mapping(t_bytes32,t_struct(RoleData)21_storage)": {
        "encoding": "mapping",
        "key": "t_bytes32",
        "label": "mapping(bytes32 => struct AccessControl.RoleData)",
        "numberOfBytes": "32",
        "value": "t_struct(RoleData)21_storage"
      },
      "t_mapping(t_string_memory_ptr,t_uint16)": {
        "encoding": "mapping",
        "key": "t_string_memory_ptr",
        "label": "mapping(string => uint16)",
        "numberOfBytes": "32",
        "value": "t_uint16"
      },
      "t_mapping(t_uint16,t_string_storage)": {
        "encoding": "mapping",
        "key": "t_uint16",
        "label": "mapping(uint16 => string)",
        "numberOfBytes": "32",
        "value": "t_string_storage"
      },
      "t_string_memory_ptr": {
        "encoding": "bytes",
        "label": "string",
        "numberOfBytes": "32"
      },
      "t_string_storage": {
        "encoding": "bytes",
        "label": "string",
        "numberOfBytes": "32"
      },
      "t_struct(AuditLogs)648_storage": {
        "encoding": "inplace",
        "label": "struct AuditTrail.AuditLogs",
        "members": [
          {
            "astId": 634,
            "contract": "contracts/AuditTrail.sol:AuditTrail",
            "label": "userNamesEncrypted",
            "offset": 0,
            "slot": "0",
            "type": "t_array(t_string_storage)dyn_storage"
          },
          {
            "astId": 637,
            "contract": "contracts/AuditTrail.sol:AuditTrail",
            "label": "documentHashes",
            "offset": 0,
            "slot": "1",
            "type": "t_array(t_string_storage)dyn_storage"
          },
          {
            "astId": 640,
            "contract": "contracts/AuditTrail.sol:AuditTrail",
            "label": "customerNameIds",
            "offset": 0,
            "slot": "2",
            "type": "t_array(t_uint16)dyn_storage"
          },
          {
            "astId": 643,
            "contract": "contracts/AuditTrail.sol:AuditTrail",
            "label": "timeStamps",
            "offset": 0,
            "slot": "3",
            "type": "t_array(t_uint32)dyn_storage"
          },
          {
            "astId": 647,
            "contract": "contracts/AuditTrail.sol:AuditTrail",
            "label": "sigTypes",
            "offset": 0,
            "slot": "4",
            "type": "t_array(t_enum(SignatureType)619)dyn_storage"
          }
        ],
        "numberOfBytes": "160"
      },
      "t_struct(RoleData)21_storage": {
        "encoding": "inplace",
        "label": "struct AccessControl.RoleData",
        "members": [
          {
            "astId": 18,
            "contract": "contracts/AuditTrail.sol:AuditTrail",
            "label": "hasRole",
            "offset": 0,
            "slot": "0",
            "type": "t_mapping(t_address,t_bool)"
          },
          {
            "astId": 20,
            "contract": "contracts/AuditTrail.sol:AuditTrail",
            "label": "adminRole",
            "offset": 0,
            "slot": "1",
            "type": "t_bytes32"
          }
        ],
        "numberOfBytes": "64"
      },
      "t_uint16": {
        "encoding": "inplace",
        "label": "uint16",
        "numberOfBytes": "2"
      },
      "t_uint256": {
        "encoding": "inplace",
        "label": "uint256",
        "numberOfBytes": "32"
      },
      "t_uint32": {
        "encoding": "inplace",
        "label": "uint32",
        "numberOfBytes": "4"
      }
    }
  }
}