{
  "address": "0x11784F8D1E747EA5dde2407FF2FE2a41BBd0Fa47",
  "abi": [
    {
      "inputs": [],
      "stateMutability": "nonpayable",
      "type": "constructor"
    },
    {
      "inputs": [],
      "name": "AccessControlBadConfirmation",
      "type": "error"
    },
    {
      "inputs": [
        {
          "internalType": "address",
          "name": "account",
          "type": "address"
        },
        {
          "internalType": "bytes32",
          "name": "neededRole",
          "type": "bytes32"
        }
      ],
      "name": "AccessControlUnauthorizedAccount",
      "type": "error"
    },
    {
      "inputs": [
        {
          "internalType": "address",
          "name": "owner",
          "type": "address"
        }
      ],
      "name": "OwnableInvalidOwner",
      "type": "error"
    },
    {
      "inputs": [
        {
          "internalType": "address",
          "name": "account",
          "type": "address"
        }
      ],
      "name": "OwnableUnauthorizedAccount",
      "type": "error"
    },
    {
      "anonymous": false,
      "inputs": [
        {
          "indexed": false,
          "internalType": "string",
          "name": "userNameEncrypted",
          "type": "string"
        },
        {
          "indexed": false,
          "internalType": "string",
          "name": "documentHash",
          "type": "string"
        },
        {
          "indexed": false,
          "internalType": "uint256",
          "name": "timeStamp",
          "type": "uint256"
        },
        {
          "indexed": false,
          "internalType": "enum AuditTrail.SignatureType",
          "name": "sigType",
          "type": "uint8"
        }
      ],
      "name": "AuditLogCreated",
      "type": "event"
    },
    {
      "anonymous": false,
      "inputs": [
        {
          "indexed": true,
          "internalType": "address",
          "name": "previousOwner",
          "type": "address"
        },
        {
          "indexed": true,
          "internalType": "address",
          "name": "newOwner",
          "type": "address"
        }
      ],
      "name": "OwnershipTransferred",
      "type": "event"
    },
    {
      "anonymous": false,
      "inputs": [
        {
          "indexed": true,
          "internalType": "bytes32",
          "name": "role",
          "type": "bytes32"
        },
        {
          "indexed": true,
          "internalType": "bytes32",
          "name": "previousAdminRole",
          "type": "bytes32"
        },
        {
          "indexed": true,
          "internalType": "bytes32",
          "name": "newAdminRole",
          "type": "bytes32"
        }
      ],
      "name": "RoleAdminChanged",
      "type": "event"
    },
    {
      "anonymous": false,
      "inputs": [
        {
          "indexed": true,
          "internalType": "bytes32",
          "name": "role",
          "type": "bytes32"
        },
        {
          "indexed": true,
          "internalType": "address",
          "name": "account",
          "type": "address"
        },
        {
          "indexed": true,
          "internalType": "address",
          "name": "sender",
          "type": "address"
        }
      ],
      "name": "RoleGranted",
      "type": "event"
    },
    {
      "anonymous": false,
      "inputs": [
        {
          "indexed": true,
          "internalType": "bytes32",
          "name": "role",
          "type": "bytes32"
        },
        {
          "indexed": true,
          "internalType": "address",
          "name": "account",
          "type": "address"
        },
        {
          "indexed": true,
          "internalType": "address",
          "name": "sender",
          "type": "address"
        }
      ],
      "name": "RoleRevoked",
      "type": "event"
    },
    {
      "inputs": [],
      "name": "CUSTOMER_NAME",
      "outputs": [
        {
          "internalType": "string",
          "name": "",
          "type": "string"
        }
      ],
      "stateMutability": "view",
      "type": "function"
    },
    {
      "inputs": [],
      "name": "DEFAULT_ADMIN_ROLE",
      "outputs": [
        {
          "internalType": "bytes32",
          "name": "",
          "type": "bytes32"
        }
      ],
      "stateMutability": "view",
      "type": "function"
    },
    {
      "inputs": [
        {
          "internalType": "uint256",
          "name": "",
          "type": "uint256"
        }
      ],
      "name": "IdToAuditLog",
      "outputs": [
        {
          "internalType": "string",
          "name": "userNameEncrypted",
          "type": "string"
        },
        {
          "internalType": "string",
          "name": "documentHash",
          "type": "string"
        },
        {
          "internalType": "uint256",
          "name": "timeStamp",
          "type": "uint256"
        },
        {
          "internalType": "enum AuditTrail.SignatureType",
          "name": "sigType",
          "type": "uint8"
        }
      ],
      "stateMutability": "view",
      "type": "function"
    },
    {
      "inputs": [],
      "name": "agreementIdTotalCount",
      "outputs": [
        {
          "internalType": "uint256",
          "name": "",
          "type": "uint256"
        }
      ],
      "stateMutability": "view",
      "type": "function"
    },
    {
      "inputs": [
        {
          "internalType": "string",
          "name": "_userNameEncrypted",
          "type": "string"
        },
        {
          "internalType": "string",
          "name": "_documentHash",
          "type": "string"
        },
        {
          "internalType": "uint256",
          "name": "_timeStamp",
          "type": "uint256"
        },
        {
          "internalType": "enum AuditTrail.SignatureType",
          "name": "_sigType",
          "type": "uint8"
        }
      ],
      "name": "createAuditLog",
      "outputs": [],
      "stateMutability": "nonpayable",
      "type": "function"
    },
    {
      "inputs": [
        {
          "internalType": "uint256",
          "name": "_Id",
          "type": "uint256"
        }
      ],
      "name": "getAuditLogById",
      "outputs": [
        {
          "components": [
            {
              "internalType": "string",
              "name": "userNameEncrypted",
              "type": "string"
            },
            {
              "internalType": "string",
              "name": "documentHash",
              "type": "string"
            },
            {
              "internalType": "uint256",
              "name": "timeStamp",
              "type": "uint256"
            },
            {
              "internalType": "enum AuditTrail.SignatureType",
              "name": "sigType",
              "type": "uint8"
            }
          ],
          "internalType": "struct AuditTrail.AuditLog",
          "name": "",
          "type": "tuple"
        }
      ],
      "stateMutability": "view",
      "type": "function"
    },
    {
      "inputs": [],
      "name": "getAuditLogs",
      "outputs": [
        {
          "components": [
            {
              "internalType": "string",
              "name": "userNameEncrypted",
              "type": "string"
            },
            {
              "internalType": "string",
              "name": "documentHash",
              "type": "string"
            },
            {
              "internalType": "uint256",
              "name": "timeStamp",
              "type": "uint256"
            },
            {
              "internalType": "enum AuditTrail.SignatureType",
              "name": "sigType",
              "type": "uint8"
            }
          ],
          "internalType": "struct AuditTrail.AuditLog[]",
          "name": "",
          "type": "tuple[]"
        }
      ],
      "stateMutability": "view",
      "type": "function"
    },
    {
      "inputs": [],
      "name": "getCustomerName",
      "outputs": [
        {
          "internalType": "string",
          "name": "",
          "type": "string"
        }
      ],
      "stateMutability": "pure",
      "type": "function"
    },
    {
      "inputs": [
        {
          "internalType": "bytes32",
          "name": "role",
          "type": "bytes32"
        }
      ],
      "name": "getRoleAdmin",
      "outputs": [
        {
          "internalType": "bytes32",
          "name": "",
          "type": "bytes32"
        }
      ],
      "stateMutability": "view",
      "type": "function"
    },
    {
      "inputs": [
        {
          "internalType": "bytes32",
          "name": "role",
          "type": "bytes32"
        },
        {
          "internalType": "address",
          "name": "account",
          "type": "address"
        }
      ],
      "name": "grantRole",
      "outputs": [],
      "stateMutability": "nonpayable",
      "type": "function"
    },
    {
      "inputs": [
        {
          "internalType": "bytes32",
          "name": "role",
          "type": "bytes32"
        },
        {
          "internalType": "address",
          "name": "account",
          "type": "address"
        }
      ],
      "name": "hasRole",
      "outputs": [
        {
          "internalType": "bool",
          "name": "",
          "type": "bool"
        }
      ],
      "stateMutability": "view",
      "type": "function"
    },
    {
      "inputs": [],
      "name": "owner",
      "outputs": [
        {
          "internalType": "address",
          "name": "",
          "type": "address"
        }
      ],
      "stateMutability": "view",
      "type": "function"
    },
    {
      "inputs": [],
      "name": "renounceOwnership",
      "outputs": [],
      "stateMutability": "nonpayable",
      "type": "function"
    },
    {
      "inputs": [
        {
          "internalType": "bytes32",
          "name": "role",
          "type": "bytes32"
        },
        {
          "internalType": "address",
          "name": "callerConfirmation",
          "type": "address"
        }
      ],
      "name": "renounceRole",
      "outputs": [],
      "stateMutability": "nonpayable",
      "type": "function"
    },
    {
      "inputs": [
        {
          "internalType": "bytes32",
          "name": "role",
          "type": "bytes32"
        },
        {
          "internalType": "address",
          "name": "account",
          "type": "address"
        }
      ],
      "name": "revokeRole",
      "outputs": [],
      "stateMutability": "nonpayable",
      "type": "function"
    },
    {
      "inputs": [
        {
          "internalType": "bytes4",
          "name": "interfaceId",
          "type": "bytes4"
        }
      ],
      "name": "supportsInterface",
      "outputs": [
        {
          "internalType": "bool",
          "name": "",
          "type": "bool"
        }
      ],
      "stateMutability": "view",
      "type": "function"
    },
    {
      "inputs": [
        {
          "internalType": "address",
          "name": "newOwner",
          "type": "address"
        }
      ],
      "name": "transferOwnership",
      "outputs": [],
      "stateMutability": "nonpayable",
      "type": "function"
    }
  ],
  "transactionHash": "0x58ce6059afc7603973d18e3aa80bbb4f3a9bed84f4204ae14213261876c002d3",
  "args": [],
  "numDeployments": 1,
  "solcInputHash": "15fa780743821c30240c3754204ad6ff",
  "bytecode": "0x608060405234801561001057600080fd5b50338061003757604051631e4fbdf760e01b81526000600482015260240160405180910390fd5b61004081610052565b5061004c6000336100a4565b50610150565b600180546001600160a01b038381166001600160a01b0319831681179093556040519116919082907f8be0079c531659141344cd1fd0a4f28419497f9722a3daafe3b4186f6b6457e090600090a35050565b6000828152602081815260408083206001600160a01b038516845290915281205460ff16610146576000838152602081815260408083206001600160a01b03861684529091529020805460ff191660011790556100fe3390565b6001600160a01b0316826001600160a01b0316847f2f8788117e7eff1d82e926ec794901d17c78024a50270940304540a733656f0d60405160405180910390a450600161014a565b5060005b92915050565b6110b18061015f6000396000f3fe608060405234801561001057600080fd5b506004361061010b5760003560e01c806390d447a2116100a2578063c465f2f011610071578063c465f2f014610259578063c5262c931461026e578063d547741f14610277578063eb66d8df1461028a578063f2fde38b146102ae57600080fd5b806390d447a21461020857806391d148541461021b578063a042bb761461022e578063a217fddf1461025157600080fd5b8063498c40ee116100de578063498c40ee1461019157806367ccaa55146101c5578063715018a6146101e55780638da5cb5b146101ed57600080fd5b806301ffc9a714610110578063248a9ca3146101385780632f2ff15d1461016957806336568abe1461017e575b600080fd5b61012361011e366004610b85565b6102c1565b60405190151581526020015b60405180910390f35b61015b610146366004610bb6565b60009081526020819052604090206001015490565b60405190815260200161012f565b61017c610177366004610beb565b6102f8565b005b61017c61018c366004610beb565b610323565b6101b8604051806040016040528060088152602001672237b1baa9b4b3b760c11b81525081565b60405161012f9190610c5d565b6101d86101d3366004610bb6565b61035b565b60405161012f9190610cfd565b61017c6104e1565b6001546040516001600160a01b03909116815260200161012f565b61017c610216366004610db3565b6104f5565b610123610229366004610beb565b6105b1565b61024161023c366004610bb6565b6105da565b60405161012f9493929190610e37565b61015b600081565b610261610716565b60405161012f9190610e7b565b61015b60025481565b61017c610285366004610beb565b610922565b6040805180820190915260088152672237b1baa9b4b3b760c11b60208201526101b8565b61017c6102bc366004610edf565b610947565b60006001600160e01b03198216637965db0b60e01b14806102f257506301ffc9a760e01b6001600160e01b03198316145b92915050565b6000828152602081905260409020600101546103138161098a565b61031d8383610994565b50505050565b6001600160a01b038116331461034c5760405163334bd91960e11b815260040160405180910390fd5b6103568282610a26565b505050565b610363610b4d565b6000828152600360205260409081902081516080810190925280548290829061038b90610efa565b80601f01602080910402602001604051908101604052809291908181526020018280546103b790610efa565b80156104045780601f106103d957610100808354040283529160200191610404565b820191906000526020600020905b8154815290600101906020018083116103e757829003601f168201915b5050505050815260200160018201805461041d90610efa565b80601f016020809104026020016040519081016040528092919081815260200182805461044990610efa565b80156104965780601f1061046b57610100808354040283529160200191610496565b820191906000526020600020905b81548152906001019060200180831161047957829003601f168201915b505050918352505060028201546020820152600382015460409091019060ff1660018111156104c7576104c7610c70565b60018111156104d8576104d8610c70565b90525092915050565b6104e9610a91565b6104f36000610abe565b565b6104fd610a91565b604051806080016040528085815260200184815260200183815260200182600181111561052c5761052c610c70565b905260045460009081526003602052604090208151819061054d9082610f7e565b50602082015160018201906105629082610f7e565b5060408201516002820155606082015160038201805460ff19166001838181111561058f5761058f610c70565b02179055505060048054915060006105a68361103e565b919050555050505050565b6000918252602082815260408084206001600160a01b0393909316845291905290205460ff1690565b6003602052600090815260409020805481906105f590610efa565b80601f016020809104026020016040519081016040528092919081815260200182805461062190610efa565b801561066e5780601f106106435761010080835404028352916020019161066e565b820191906000526020600020905b81548152906001019060200180831161065157829003601f168201915b50505050509080600101805461068390610efa565b80601f01602080910402602001604051908101604052809291908181526020018280546106af90610efa565b80156106fc5780601f106106d1576101008083540402835291602001916106fc565b820191906000526020600020905b8154815290600101906020018083116106df57829003601f168201915b50505050600283015460039093015491929160ff16905084565b6060600060045467ffffffffffffffff81111561073557610735610d10565b60405190808252806020026020018201604052801561076e57816020015b61075b610b4d565b8152602001906001900390816107535790505b50905060005b60045481101561091c57600081815260036020526040908190208151608081019092528054829082906107a690610efa565b80601f01602080910402602001604051908101604052809291908181526020018280546107d290610efa565b801561081f5780601f106107f45761010080835404028352916020019161081f565b820191906000526020600020905b81548152906001019060200180831161080257829003601f168201915b5050505050815260200160018201805461083890610efa565b80601f016020809104026020016040519081016040528092919081815260200182805461086490610efa565b80156108b15780601f10610886576101008083540402835291602001916108b1565b820191906000526020600020905b81548152906001019060200180831161089457829003601f168201915b505050918352505060028201546020820152600382015460409091019060ff1660018111156108e2576108e2610c70565b60018111156108f3576108f3610c70565b8152505082828151811061090957610909611065565b6020908102919091010152600101610774565b50919050565b60008281526020819052604090206001015461093d8161098a565b61031d8383610a26565b61094f610a91565b6001600160a01b03811661097e57604051631e4fbdf760e01b8152600060048201526024015b60405180910390fd5b61098781610abe565b50565b6109878133610b10565b60006109a083836105b1565b610a1e576000838152602081815260408083206001600160a01b03861684529091529020805460ff191660011790556109d63390565b6001600160a01b0316826001600160a01b0316847f2f8788117e7eff1d82e926ec794901d17c78024a50270940304540a733656f0d60405160405180910390a45060016102f2565b5060006102f2565b6000610a3283836105b1565b15610a1e576000838152602081815260408083206001600160a01b0386168085529252808320805460ff1916905551339286917ff6391f5c32d9c69d2a47ea670b442974b53935d1edc7fd64eb21e047a839171b9190a45060016102f2565b6001546001600160a01b031633146104f35760405163118cdaa760e01b8152336004820152602401610975565b600180546001600160a01b038381166001600160a01b0319831681179093556040519116919082907f8be0079c531659141344cd1fd0a4f28419497f9722a3daafe3b4186f6b6457e090600090a35050565b610b1a82826105b1565b610b495760405163e2517d3f60e01b81526001600160a01b038216600482015260248101839052604401610975565b5050565b604051806080016040528060608152602001606081526020016000815260200160006001811115610b8057610b80610c70565b905290565b600060208284031215610b9757600080fd5b81356001600160e01b031981168114610baf57600080fd5b9392505050565b600060208284031215610bc857600080fd5b5035919050565b80356001600160a01b0381168114610be657600080fd5b919050565b60008060408385031215610bfe57600080fd5b82359150610c0e60208401610bcf565b90509250929050565b6000815180845260005b81811015610c3d57602081850181015186830182015201610c21565b506000602082860101526020601f19601f83011685010191505092915050565b602081526000610baf6020830184610c17565b634e487b7160e01b600052602160045260246000fd5b60028110610ca457634e487b7160e01b600052602160045260246000fd5b9052565b6000815160808452610cbd6080850182610c17565b905060208301518482036020860152610cd68282610c17565b915050604083015160408501526060830151610cf56060860182610c86565b509392505050565b602081526000610baf6020830184610ca8565b634e487b7160e01b600052604160045260246000fd5b600082601f830112610d3757600080fd5b813567ffffffffffffffff80821115610d5257610d52610d10565b604051601f8301601f19908116603f01168101908282118183101715610d7a57610d7a610d10565b81604052838152866020858801011115610d9357600080fd5b836020870160208301376000602085830101528094505050505092915050565b60008060008060808587031215610dc957600080fd5b843567ffffffffffffffff80821115610de157600080fd5b610ded88838901610d26565b95506020870135915080821115610e0357600080fd5b50610e1087828801610d26565b93505060408501359150606085013560028110610e2c57600080fd5b939692955090935050565b608081526000610e4a6080830187610c17565b8281036020840152610e5c8187610c17565b915050836040830152610e726060830184610c86565b95945050505050565b600060208083016020845280855180835260408601915060408160051b87010192506020870160005b82811015610ed257603f19888603018452610ec0858351610ca8565b94509285019290850190600101610ea4565b5092979650505050505050565b600060208284031215610ef157600080fd5b610baf82610bcf565b600181811c90821680610f0e57607f821691505b60208210810361091c57634e487b7160e01b600052602260045260246000fd5b601f821115610356576000816000526020600020601f850160051c81016020861015610f575750805b601f850160051c820191505b81811015610f7657828155600101610f63565b505050505050565b815167ffffffffffffffff811115610f9857610f98610d10565b610fac81610fa68454610efa565b84610f2e565b602080601f831160018114610fe15760008415610fc95750858301515b600019600386901b1c1916600185901b178555610f76565b600085815260208120601f198616915b8281101561101057888601518255948401946001909101908401610ff1565b508582101561102e5787850151600019600388901b60f8161c191681555b5050505050600190811b01905550565b60006001820161105e57634e487b7160e01b600052601160045260246000fd5b5060010190565b634e487b7160e01b600052603260045260246000fdfea2646970667358221220f65c614e22d59d9c6583f621bf9c809c778c0196edce1dd2e1535eb8ec597a3164736f6c63430008160033",
  "devdoc": {
    "errors": {
      "AccessControlBadConfirmation()": [
        {
          "details": "The caller of a function is not the expected one. NOTE: Don't confuse with {AccessControlUnauthorizedAccount}."
        }
      ],
      "AccessControlUnauthorizedAccount(address,bytes32)": [
        {
          "details": "The `account` is missing a role."
        }
      ],
      "OwnableInvalidOwner(address)": [
        {
          "details": "The owner is not a valid owner account. (eg. `address(0)`)"
        }
      ],
      "OwnableUnauthorizedAccount(address)": [
        {
          "details": "The caller account is not authorized to perform an operation."
        }
      ]
    },
    "events": {
      "RoleAdminChanged(bytes32,bytes32,bytes32)": {
        "details": "Emitted when `newAdminRole` is set as ``role``'s admin role, replacing `previousAdminRole` `DEFAULT_ADMIN_ROLE` is the starting admin for all roles, despite {RoleAdminChanged} not being emitted signaling this."
      },
      "RoleGranted(bytes32,address,address)": {
        "details": "Emitted when `account` is granted `role`. `sender` is the account that originated the contract call, an admin role bearer except when using {AccessControl-_setupRole}."
      },
      "RoleRevoked(bytes32,address,address)": {
        "details": "Emitted when `account` is revoked `role`. `sender` is the account that originated the contract call:   - if using `revokeRole`, it is the admin role bearer   - if using `renounceRole`, it is the role bearer (i.e. `account`)"
      }
    },
    "kind": "dev",
    "methods": {
      "getRoleAdmin(bytes32)": {
        "details": "Returns the admin role that controls `role`. See {grantRole} and {revokeRole}. To change a role's admin, use {_setRoleAdmin}."
      },
      "grantRole(bytes32,address)": {
        "details": "Grants `role` to `account`. If `account` had not been already granted `role`, emits a {RoleGranted} event. Requirements: - the caller must have ``role``'s admin role. May emit a {RoleGranted} event."
      },
      "hasRole(bytes32,address)": {
        "details": "Returns `true` if `account` has been granted `role`."
      },
      "owner()": {
        "details": "Returns the address of the current owner."
      },
      "renounceOwnership()": {
        "details": "Leaves the contract without owner. It will not be possible to call `onlyOwner` functions. Can only be called by the current owner. NOTE: Renouncing ownership will leave the contract without an owner, thereby disabling any functionality that is only available to the owner."
      },
      "renounceRole(bytes32,address)": {
        "details": "Revokes `role` from the calling account. Roles are often managed via {grantRole} and {revokeRole}: this function's purpose is to provide a mechanism for accounts to lose their privileges if they are compromised (such as when a trusted device is misplaced). If the calling account had been revoked `role`, emits a {RoleRevoked} event. Requirements: - the caller must be `callerConfirmation`. May emit a {RoleRevoked} event."
      },
      "revokeRole(bytes32,address)": {
        "details": "Revokes `role` from `account`. If `account` had been granted `role`, emits a {RoleRevoked} event. Requirements: - the caller must have ``role``'s admin role. May emit a {RoleRevoked} event."
      },
      "supportsInterface(bytes4)": {
        "details": "See {IERC165-supportsInterface}."
      },
      "transferOwnership(address)": {
        "details": "Transfers ownership of the contract to a new account (`newOwner`). Can only be called by the current owner."
      }
    },
    "version": 1
  },
  "userdoc": {
    "kind": "user",
    "methods": {},
    "version": 1
  },
  "storageLayout": {
    "storage": [
      {
        "astId": 26,
        "contract": "contracts/AuditTrail.sol:AuditTrail",
        "label": "_roles",
        "offset": 0,
        "slot": "0",
        "type": "t_mapping(t_bytes32,t_struct(RoleData)21_storage)"
      },
      {
        "astId": 387,
        "contract": "contracts/AuditTrail.sol:AuditTrail",
        "label": "_owner",
        "offset": 0,
        "slot": "1",
        "type": "t_address"
      },
      {
        "astId": 626,
        "contract": "contracts/AuditTrail.sol:AuditTrail",
        "label": "agreementIdTotalCount",
        "offset": 0,
        "slot": "2",
        "type": "t_uint256"
      },
      {
        "astId": 631,
        "contract": "contracts/AuditTrail.sol:AuditTrail",
        "label": "IdToAuditLog",
        "offset": 0,
        "slot": "3",
        "type": "t_mapping(t_uint256,t_struct(AuditLog)624_storage)"
      },
      {
        "astId": 633,
        "contract": "contracts/AuditTrail.sol:AuditTrail",
        "label": "logCount",
        "offset": 0,
        "slot": "4",
        "type": "t_uint256"
      }
    ],
    "types": {
      "t_address": {
        "encoding": "inplace",
        "label": "address",
        "numberOfBytes": "20"
      },
      "t_bool": {
        "encoding": "inplace",
        "label": "bool",
        "numberOfBytes": "1"
      },
      "t_bytes32": {
        "encoding": "inplace",
        "label": "bytes32",
        "numberOfBytes": "32"
      },
      "t_enum(SignatureType)614": {
        "encoding": "inplace",
        "label": "enum AuditTrail.SignatureType",
        "numberOfBytes": "1"
      },
      "t_mapping(t_address,t_bool)": {
        "encoding": "mapping",
        "key": "t_address",
        "label": "mapping(address => bool)",
        "numberOfBytes": "32",
        "value": "t_bool"
      },
      "t_mapping(t_bytes32,t_struct(RoleData)21_storage)": {
        "encoding": "mapping",
        "key": "t_bytes32",
        "label": "mapping(bytes32 => struct AccessControl.RoleData)",
        "numberOfBytes": "32",
        "value": "t_struct(RoleData)21_storage"
      },
      "t_mapping(t_uint256,t_struct(AuditLog)624_storage)": {
        "encoding": "mapping",
        "key": "t_uint256",
        "label": "mapping(uint256 => struct AuditTrail.AuditLog)",
        "numberOfBytes": "32",
        "value": "t_struct(AuditLog)624_storage"
      },
      "t_string_storage": {
        "encoding": "bytes",
        "label": "string",
        "numberOfBytes": "32"
      },
      "t_struct(AuditLog)624_storage": {
        "encoding": "inplace",
        "label": "struct AuditTrail.AuditLog",
        "members": [
          {
            "astId": 616,
            "contract": "contracts/AuditTrail.sol:AuditTrail",
            "label": "userNameEncrypted",
            "offset": 0,
            "slot": "0",
            "type": "t_string_storage"
          },
          {
            "astId": 618,
            "contract": "contracts/AuditTrail.sol:AuditTrail",
            "label": "documentHash",
            "offset": 0,
            "slot": "1",
            "type": "t_string_storage"
          },
          {
            "astId": 620,
            "contract": "contracts/AuditTrail.sol:AuditTrail",
            "label": "timeStamp",
            "offset": 0,
            "slot": "2",
            "type": "t_uint256"
          },
          {
            "astId": 623,
            "contract": "contracts/AuditTrail.sol:AuditTrail",
            "label": "sigType",
            "offset": 0,
            "slot": "3",
            "type": "t_enum(SignatureType)614"
          }
        ],
        "numberOfBytes": "128"
      },
      "t_struct(RoleData)21_storage": {
        "encoding": "inplace",
        "label": "struct AccessControl.RoleData",
        "members": [
          {
            "astId": 18,
            "contract": "contracts/AuditTrail.sol:AuditTrail",
            "label": "hasRole",
            "offset": 0,
            "slot": "0",
            "type": "t_mapping(t_address,t_bool)"
          },
          {
            "astId": 20,
            "contract": "contracts/AuditTrail.sol:AuditTrail",
            "label": "adminRole",
            "offset": 0,
            "slot": "1",
            "type": "t_bytes32"
          }
        ],
        "numberOfBytes": "64"
      },
      "t_uint256": {
        "encoding": "inplace",
        "label": "uint256",
        "numberOfBytes": "32"
      }
    }
  }
}